:020000040800F2
:1000000000040020C10100086137000861370008C2
:100010006137000861370008613700086137000860
:1000200061370008613700086137000821130008B4
:100030006137000861370008613700086137000840
:100040006137000861370008613700086137000830
:100050006137000861370008613700086137000820
:1000600061370008613700086137000891180008FF
:100070005118000811180008D1170008911700083E
:10008000511700081117000861370008910F000888
:10009000510F0008110F00084109000861370008DE
:1000A00061370008613700086137000861370008D0
:1000B000D11300086137000861370008D10E00082D
:1000C000610D0008B10E0008210D0008613700081D
:1000D00061370008613700086137000861090008CE
:1000E0006137000861370008613700086137000890
:1000F000613700086137000861370008D116000831
:1001000061370008613700083108000861370008CE
:10011000613700086137000861370008613700085F
:10012000911600085116000811160008D115000894
:10013000911500086137000861370008710F000849
:10014000310F0008F10E000821090008613700088E
:100150005115000811150008D11400086137000876
:10016000613700086137000861370008613700080F
:1001700061370008613700086137000861370008FF
:1001800061370008613700086137000861370008EF
:1001900061370008613700086137000861370008DF
:1001A00061370008613700086137000861370008CF
:1001B00061370008613700086137000861370008BF
:1001C00072B6344880F3098840F20000CCF2000097
:1001D0004EF63471CEF200010860BFF34F8FBFF3CB
:1001E0006F8F40F20000C0F2F0004EF68851CEF260
:1001F00000010860BFF34F8FBFF36F8F4FF0000017
:10020000E1EE100A4EF63C71CEF2000108600620C5
:1002100080F31488BFF36F8F03F0E2FA00F0C8FE9A
:100220001D481E491E4A91423CBF41F8040BFAE7A3
:100230001C49184A91423CBF41F8040BFAE71A499D
:100240001A4A1B4B9A423EBF51F8040B42F8040B6A
:10025000F8E700201749184A91423CBF41F8040BC7
:10026000FAE703F085FA03F0B3FA144C144DAC42EC
:1002700003DA54F8041B8847F9E703F0B9FA114C84
:10028000114DAC4203DA54F8041B8847F9E703F038
:1002900097BA000000080020555555550000002071
:1002A0000004002000040020B06F000800080020B7
:1002B0000008002000080020E0320020C0010008F3
:1002C000C0010008C0010008C001000800000000D3
:1002D0002DE9F04F2DED108AC1F80CD0C3689D4672
:1002E000BDEC108ABDE8F08F03F00AF902F080FE41
:1002F000002383F311882846A047002003F020F94B
:1003000002F08EFE03F00CF902F092FE03F0F8F812
:1003100002F06EFE00DFFEE70000000000000000BB
:10032000844641EA000313F003036DD1403A41D300
:1003300051F8043B40F8043B51F8043B40F8043BBF
:1003400051F8043B40F8043B51F8043B40F8043BAF
:1003500051F8043B40F8043B51F8043B40F8043B9F
:1003600051F8043B40F8043B51F8043B40F8043B8F
:1003700051F8043B40F8043B51F8043B40F8043B7F
:1003800051F8043B40F8043B51F8043B40F8043B6F
:1003900051F8043B40F8043B51F8043B40F8043B5F
:1003A00051F8043B40F8043B51F8043B40F8043B4F
:1003B000403ABDD2303211D351F8043B40F8043BEF
:1003C00051F8043B40F8043B51F8043B40F8043B2F
:1003D00051F8043B40F8043B103AEDD20C3205D3FF
:1003E00051F8043B40F8043B043AF9D2043208D0F7
:1003F000D2071CBF11F8013B00F8013B01D30B8869
:1004000003806046704700BF082A13D38B078DD046
:1004100010F003038AD0C3F10403D21ADB071CBF18
:1004200011F8013B00F8013B80D331F8023B20F882
:10043000023B7BE7043AD9D3013A11F8013B00F8BB
:10044000013BF9D20B7803704B7843708B78837043
:10045000604670470000000000000000000000003F
:10046000A2EB0300704700BF02780B78012A28BF77
:100470009A42F5D16DE9044540EA0104CDE90267ED
:100480006FF0000C4FEA447212B380EA010414F0DA
:10049000070F6AD100F0070420F0070004F00305FD
:1004A00021F007014FEAC505F0E8042314F0040F1A
:1004B000F1E804670CFA05F462EA040266EA04064D
:1004C0000AD063EA0403624667EA0407664603E06B
:1004D000F0E80423F1E8046782FA4CF582EA0604A6
:1004E000A4FA8CF46CBB83FA4CF583EA0705A5FAF1
:1004F0008CF595B950E9022351E9026782FA4CF56F
:1005000082EA0604A4FA8CF483FA4CF583EA070520
:10051000A5FA8CF52543DBD09CB92DBAB5FA85F444
:1005200024F0070427FA04F1DDE9026723FA04F353
:1005300003F0FF0001F0FF01FDE80445A0EB01001E
:10054000704724BAB4FA84F424F0070426FA04F1BC
:10055000DDE9026722FA04F202F0FF0001F0FF0178
:10056000FDE80445A0EB0100704714F0030F3CD1F7
:1005700010F0030428D150F8082B51F8083B82FAF8
:100580004CF582EA0305A5FA8CF55DB950F8042C08
:1005900051F8043C82FA4CF582EA0305A5FA8CF581
:1005A000002DE8D02DBAB5FA85F424F0070423FA1B
:1005B00004F122FA04F202F0FF0001F0FF01FDE86D
:1005C0000445A0EB010070474FEAC40420F003008B
:1005D00050F8082B21F0030151F8083B0CFA04F401
:1005E00062EA040263EA0403C9E710F003041AD0C4
:1005F000A1EB040120F00300E40750F8042B06D01F
:100600000FD28B785FFAA2F4E41A06D12BB1CB7823
:100610005FFAB2F4E41A00D11BB920465DF8104B22
:10062000704701F1040150F8042BCC0721F00301BD
:1006300051F8043B48D824D222F07F4482FA4CF58A
:1006400094EA1325A5FA8CF50AD165B951F8043B53
:1006500084EA0204B4EB036F0ED150F8042BEBE7ED
:100660004FEA132355E035F07F454DD10878FDE87A
:100670000445C0F1000070474FEA126203F0FF0327
:1006800047E002EA1C4482FA4CF594EA1345A5FAC5
:100690008CF50AD165B951F8043B84EA0204B4EB45
:1006A000034F0CD150F8042BEBE74FEA134330E033
:1006B00015EA1C4528D10B884FEA124229E04FEA7F
:1006C000124203EA1C4324E002F0FF0482FA4CF5D4
:1006D00094EA1365A5FA8CF50AD165B951F8043B83
:1006E00084EA0204B4EB032F09D150F8042BEBE7A2
:1006F0004FEA13630DE015F0FF0F05D10B684FEAC9
:10070000122223F07F4304E04FF00000FDE804458F
:10071000704712BA1BBA82FA4CF482EA0304A4FAB4
:100720008CF5B5FA85F402FA04F203FA04F34FEA01
:100730001260FDE80445A0EB136070470000000064
:10074000024AD36843F08003D360704700480040FA
:1007500011F00C0F00D1704772B6024B024ADA62F8
:10076000FEE700BF40270020705400080000000092
:10077000002903DD19491A4A01F0E2BD10B51949F3
:10078000194A82B0044601F0DBFD20461749184A99
:1007900001F0D6FD20461749174A01F0D1FD204649
:1007A0001649174A01F0CCFD20461649164A01F0B9
:1007B000C7FD20461549164A01F0C2FD20461549DD
:1007C000154A01F0BDFD154B009320461449154A0A
:1007D000154B01F0B5FD02B010BD00BF7C54000800
:1007E0008854000890540008A4540008AC54000831
:1007F000C0540008085500081C550008285500087A
:100800003C550008485500085C5500087455000820
:1008100088550008B4550008C85500080C56000853
:10082000E4550008FC5500080856000800000000C8
:1008300038B51A4D02F09CFB02F0E2FDAB691A6973
:10084000DC681440E2B2D2431A61A30704D56B6896
:100850001B690BB128469847600704D56B689B69F4
:100860000BB10E489847210704D56B681B6A0BB182
:100870000A489847E20604D56B689B6A0BB10748A3
:100880009847E30704D56B689B680BB1034898470A
:1008900002F09EFDBDE8384000F062BDE40D00208E
:1008A000C36A70B55C685C602207054617D46307AD
:1008B00014D5EA6A2023946983F3118802F0A8FB17
:1008C00002F0CEFD05F12000210401F001F802F054
:1008D000AFFD02F085FB002383F3118870BD1A6819
:1008E000064622F00202032106F8281B20211A6086
:1008F00081F3118802F08CFB02F0B2FD304600213A
:1009000000F0E6FF02F094FD02F06AFB002383F39F
:100910001188CCE70000000000000000000000008B
:1009200008B502F025FB02F06BFD0448FFF7B8FFA5
:1009300002F04EFDBDE8084000F012BDB40D0020ED
:1009400008B502F015FB02F05BFD0448FFF7A8FFB5
:1009500002F03EFDBDE8084000F002BD840D00201D
:100960002DE9F0478D4C02F003FB02F049FD666F64
:10097000F7683368DA059DB215D5202383F3118813
:1009800002F046FB02F06CFD201D4FF4007100F0F8
:100990009FFF6FF48073336002F04AFD02F020FB8A
:1009A000002383F31188202383F3118802F030FBA6
:1009B00002F056FD15F02F0F0ED0DFF8E08108F1A0
:1009C0000C092B074FD1A806D6F804A018D4356817
:1009D000ADB215F02F0FF4D102F02AFD02F000FBAA
:1009E000002383F31188390601D52A0655D46B06F6
:1009F00000F1928002F0ECFCBDE8F04700F0B0BCE2
:100A000002F09EFB02F09CFB63691BB96448042161
:100A100000F05EFF02F094FB02F092FB236A626A30
:100A2000934200F0A9806269591C0132626121621F
:100A300083F800A0226AE3699A4203D3D8F81830F9
:100A4000C8F82030E0684845C1D090F820200368FD
:100A5000C8F80C30042AC3F8049019D072B6514B70
:100A6000514ADA62FEE715F0080F0CBF0021802121
:100A7000E80748BF41F02001AA0748BF41F0400104
:100A80006B0748BF41F48071454800F021FF9AE7A9
:100A90000023436202F034FC99E7202383F311889A
:100AA00002F0B6FA02F0DCFC02F04AFB02F048FB6E
:100AB000A36C626C39489A4250D0A26B3749581CDB
:100AC0000132A263A06493F80080236C984201D3A2
:100AD000CB6B8B64314A206B02F1300398420FD00C
:100AE0000168116390F820204B60042A04D072B68C
:100AF0002C4B2D4ADA62FEE70023436202F000FC31
:100B0000C6F8048002F094FC02F06AFA002383F332
:100B100011886B067FF56EAF202383F3118802F0F6
:100B200077FA02F09DFC02F00BFB626CA36C1B4891
:100B30009A422BD04FF6BF733B406FF04002F360F8
:100B4000326002F075FC02F04BFA002383F3118847
:100B500002F03EFCBDE8F04700F002BC826B002AC8
:100B6000ABD00430082100F0B3FE4FF63F733B409A
:100B700043F04003F360C5E7D8F81420002A3FF49F
:100B800052AF0748802100F0A3FE20E7836B002BC3
:100B9000D0D00430102100F09BFECBE7C421002010
:100BA000C821002040270020806B000800000000C2
:100BB00011F00C0F38B53AD1416A0B681A6822F06F
:100BC0001F021A601A68D407FCD40D7A026A4C68B6
:100BD00013683D21A9402160196821F01F011960A7
:100BE0001968C907FCD4436851680446107A1A682A
:100BF0003D2383400B60FAB10423237020469047C5
:100C00002378042B18D0202383F3118802F000FAF4
:100C100002F026FC04F10800002102F099FB02F02A
:100C200007FC02F0DDF9002383F3118838BD72B6AA
:100C3000034B044ADA62FEE702232370E3E700BFB6
:100C40004027002070540008000000000000000051
:100C500070B5056B2A68136823F01F0313601368CF
:100C6000DE07FCD42E7AC46A6D6822683D23B34047
:100C70002B60136823F01F031360136813F0010344
:100C8000FBD1257A64683D22AA40CD05226048BF89
:100C900001238C05836044BF43F0020383604A054F
:100CA0000BD5426B546824F400745460146843F00C
:100CB000040344F40074146083600E0544BF43F0E1
:100CC000080383604D0444BF43F020038360CC04D9
:100CD0001AD543F01003090483601AD40446202374
:100CE00083F3118802F094F902F0BAFB04F11C00BE
:100CF0006FF0010102F02CFB02F09AFB02F070F998
:100D0000002383F3118870BD0A0402D4002BE5D1BF
:100D100070BD43F040038360E0E700BF00000000C7
:100D200038B50B4D6B6B5C6902F022F902F068FB81
:100D3000A1B26A6B01F45F43DB4353612846FFF7BE
:100D400087FF02F045FBBDE8384000F009BB00BF5B
:100D5000C81F00200000000000000000000000008C
:100D600038B50B4D6B6B5C6902F002F902F048FB81
:100D7000A1B26A6B01F45F43DB4353612846FFF77E
:100D800067FF02F025FBBDE8384000F0E9BA00BF7C
:100D9000901F002000000000000000000000000084
:100DA000F8B5446B3F4AA369666946EA034323F0FA
:100DB0007F4393424BD01BD8073A93423BD001323A
:100DC000934210D16268C36A22F400721B686260A9
:100DD0001A6842F001021A60626842F4805262604E
:100DE0005B68012B58D916F00A0F18BFA369F8BD2C
:100DF0002D4A934210D002329342F4D1C36A1B6849
:100E00005F68002F2CD0028C236842F0010243F46B
:100E1000A06302842360F8BD6368026B23F400734F
:100E200012686360136843F00103136016F00A0F41
:100E300018BFA369F8BD038C1A0A0BD003F0010395
:100E400043F0F00302F0060213432361CBE7038C67
:100E5000C3F34703236116F00A0F18BFA369F8BD57
:100E6000636823F400736360236843F400732360B2
:100E70000546202383F3118802F0CAF802F0F0FA45
:100E800005F11C00394602F063FA02F0D1FA02F0D3
:100E9000A7F887F31188A6E7236823F4806323600B
:100EA000A1E700BF08000300820007000000000067
:100EB00008B502F05DF802F0A3FA0448FFF770FFEE
:100EC00002F086FABDE8084000F04ABAC81F0020C8
:100ED00008B502F04DF802F093FA0448FFF760FFFE
:100EE00002F076FABDE8084000F03ABA901F002000
:100EF00008B502F03DF802F083FA044800F038FD2E
:100F000002F066FABDE8084000F02ABAB40D0020ED
:100F100008B502F02DF802F073FA044800F028FD3D
:100F200002F056FABDE8084000F01ABA840D00201D
:100F300008B502F01DF802F063FA044800F078FDED
:100F400002F046FABDE8084000F00ABAB40D0020ED
:100F500008B502F00DF802F053FA044800F068FDFD
:100F600002F036FABDE8084000F0FAB9840D00201E
:100F700008B501F0FDFF02F043FA044800F098FDC7
:100F800002F026FABDE8084000F0EAB9B40D0020EE
:100F900008B501F0EDFF02F033FA044800F088FDD7
:100FA00002F016FABDE8084000F0DAB9840D00201E
:100FB0002C492D4B4FF080504FF4404208641A608A
:100FC0000B6843F001030B600A68264B9007FBD5C2
:100FD0009A6822F003029A609A689A6019468B68B0
:100FE000204A13F00C03FAD1116801F0F9011160E5
:100FF0009360136843F4803313601168194B8903BD
:10100000FBD55A6F42F001025A675A6F1549900793
:10101000FBD5164B4B600B68134A43F080730B6093
:1010200053685904FCD50F490A680E4B9201FBD551
:101030000F4A1049996040F2057111609A6842F0B8
:1010400002029A601A469368064903F00C03082BC3
:10105000F9D14B6C43F480434B644B6E43F48043B3
:101060004B6670470038024000700040085440074B
:10107000003C02400094883800000000000000009E
:101080002DE9F043764B04689B69764A47687649B8
:101090009A6199B0204601F053F908AE2046734991
:1010A00001F04EF93546236820465B680DF10701D3
:1010B0000122984780B39DF80710042928D00829F9
:1010C00012D07F2910D00D290DF15F0339D01F29CF
:1010D000E9D99D42E7D2236820469B6898479DF84E
:1010E00007302B700135DEE7B5424FF0080120468E
:1010F000D9D023689B689847236820469B682021A5
:101100009847236820469B680821013D9847CAE715
:101110002046574901F014F92046564901F010F9CC
:10112000202383F3118801F07BFF02F0F9F90021FD
:10113000514800F0CDFB002002F022F919B0BDE8C3
:10114000F0834E49204601F0FBF8002302A92B70E2
:1011500030461D4603F07CF802A9814600200DF1BF
:101160000C0803F075F850B1042D1DD048F8040B9D
:1011700002A90020013503F06BF80028F4D118AB68
:1011800003EB850343F8540CB9F1000F86D04846B1
:101190003B49FFF769F970B9002DC1D020463949A4
:1011A000374A01F0CDF879E72046374901F0C8F811
:1011B0000023079372E748463449FFF755F930B9E1
:1011C0002046BDB12F49314A01F0BAF866E7DFF891
:1011D000C8802F4802E058F8080F48B34946FFF787
:1011E00043F90028F7D1D8F80430294603AA20464D
:1011F000984753E72749284D01F0A2F8244A274988
:10120000204601F09DF855F8082F002AF7D157B174
:101210003A6842B13D462046204901F091F855F820
:10122000082F002AF7D12046144901F089F835E744
:1012300067B1386850B1B84602E058F8080F28B1D5
:101240004946FFF711F90028F7D1CCE74A46204676
:10125000134901F075F82046124901F071F81DE7B5
:10126000402700201856000820560008385600086D
:10127000405600089456000800080020C455000895
:101280005C5600087C540008445600086456000868
:10129000885400086C560008C056000884560008A0
:1012A000885600088C56000800000000000000006E
:1012B000002903DD1549164A01F042B838B5044645
:1012C000202383F3118801F0ABFE02F029F94FF0DF
:1012D00080435D6A02F014F901F08AFE0D4B196833
:1012E000994204D098698A688168914209D30023A1
:1012F00083F31188084920462A46BDE8384001F0AA
:101300001FB872B6054ADA62FEE700BF7C540008D7
:10131000A056000840270020A8560008B056000834
:10132000064A536823F001035360EFF309836833DF
:1013300083F30988002383F31188704730EF00E0BE
:101340004FF08043DA68920701D55863704772B650
:10135000014B024ADA62FEE74027002030570008BE
:10136000202383F31188124B5B6813F4006302D1CE
:1013700083F311887047F1EE103AEFF309830D4AB9
:101380004FF08071D26843F8082C43F84C1CA3F14D
:10139000680282F30988084A11689269896892682C
:1013A00091428CBF054A064A43F8502C704700BF53
:1013B00000ED00E030EF00E04027002001030008CE
:1013C00014030008000000000000000000000000FE
:1013D0002DE9F0474FF0804601F0CAFD02F010F809
:1013E00033699B0705D401F0F3FFBDE8F047FFF731
:1013F000B7BF002737614FF0200989F311882F4DBF
:1014000001F006FE02F02CF801F09AFE01F098FEC1
:10141000EC69726AA96AA368501A984238BF05F14C
:101420001C0625D3B846374605F11C062268D4F8B9
:101430000CA00B44B242AB625660EA61C4F80C8067
:1014400008BFC7F80C8001F0F3FF01F0C9FD88F375
:1014500011882069D04789F3118801F0D9FD01F086
:10146000FFFFEC697A6AA96AA368501A8342DDD942
:10147000B44215D00B449B1A012B98BF02239C1831
:101480002046FFF75DFF4FF08043A96A5A6A0B4878
:10149000631A521A9A4203D972B6094BC362FEE725
:1014A00001F0C6FF01F09CFD002383F3118801F0D9
:1014B0008FFFBDE8F047FFF753BF00BF4027002074
:1014C000205700080000000000000000000000009D
:1014D00010B501F04DFD01F093FF094B0948596823
:1014E000826F890D01F03D018C05DC600AB1C06F8F
:1014F000904701F06DFFBDE81040FFF731BF00BF1E
:1015000000640240C830002000000000000000001D
:1015100010B501F02DFD01F073FF094B0948596822
:10152000026F090C01F03D010C04DC600AB1406F50
:10153000904701F04DFFBDE81040FFF711BF00BF1D
:1015400000640240C83000200000000000000000DD
:1015500010B501F00DFD01F053FF094B0948596822
:10156000826E890901F03D018C01DC600AB1C06E18
:10157000904701F02DFFBDE81040FFF7F1BE00BF1E
:1015800000640240C830002000000000000000009D
:1015900008B501F0EDFC01F033FF084B084859682D
:1015A000026E01F03D01D9600AB1406E904701F032
:1015B0000FFFBDE80840FFF7D3BE00BF0064024044
:1015C000C830002000000000000000000000000003
:1015D00010B501F0CDFC01F013FF094B0948196863
:1015E000826D890D01F03D018C059C600AB1C06DD2
:1015F000904701F0EDFEBDE81040FFF7B1BE00BF1F
:1016000000640240C830002000000000000000001C
:1016100010B501F0ADFC01F0F3FE094B0948196863
:10162000026D090C01F03D010C049C600AB1406D93
:10163000904701F0CDFEBDE81040FFF791BE00BF1E
:1016400000640240C83000200000000000000000DC
:1016500010B501F08DFC01F0D3FE094B0948196863
:10166000826C890901F03D018C019C600AB1C06C5B
:10167000904701F0ADFEBDE81040FFF771BE00BF1E
:1016800000640240C830002000000000000000009C
:1016900008B501F06DFC01F0B3FE084B084819686D
:1016A000026C01F03D0199600AB1406C904701F075
:1016B0008FFEBDE80840FFF753BE00BF0064024044
:1016C000C830002000000000000000000000000002
:1016D00010B501F04DFC01F093FE094B0948596823
:1016E000826B890D01F03D018C05DC600AB1C06B95
:1016F000904701F06DFEBDE81040FFF731BE00BF1E
:1017000000600240C830002000000000000000001F
:1017100010B501F02DFC01F073FE094B0948596822
:10172000026B090C01F03D010C04DC600AB1406B56
:10173000904701F04DFEBDE81040FFF711BE00BF1D
:1017400000600240C83000200000000000000000DF
:1017500010B501F00DFC01F053FE094B0948596822
:10176000826A890901F03D018C01DC600AB1C06A1E
:10177000904701F02DFEBDE81040FFF7F1BD00BF1E
:1017800000600240C830002000000000000000009F
:1017900008B501F0EDFB01F033FE084B084859682D
:1017A000026A01F03D01D9600AB1406A904701F038
:1017B0000FFEBDE80840FFF7D3BD00BF0060024048
:1017C000C830002000000000000000000000000001
:1017D00010B501F0CDFB01F013FE094B0948196863
:1017E0008269890D01F03D018C059C600AB1C069D8
:1017F000904701F0EDFDBDE81040FFF7B1BD00BF1F
:1018000000600240C830002000000000000000001E
:1018100010B501F0ADFB01F0F3FD094B0948196863
:101820000269090C01F03D010C049C600AB1406999
:10183000904701F0CDFDBDE81040FFF791BD00BF1E
:1018400000600240C83000200000000000000000DE
:1018500010B501F08DFB01F0D3FD094B0948196863
:101860008268890901F03D018C019C600AB1C06861
:10187000904701F0ADFDBDE81040FFF771BD00BF1E
:1018800000600240C830002000000000000000009E
:1018900008B501F06DFB01F0B3FD084B084A19686B
:1018A00001F03D01996013680BB15068984701F051
:1018B0008FFDBDE80840FFF753BD00BF0060024048
:1018C000C830002000000000000000000000000000
:1018D0002DE9F84380460E4601F032FCB8F1000FC6
:1018E00039D0D8F80040A04526D0002702E024686F
:1018F000A04521D0E3683343E36016B12269134267
:10190000F5D06568D4F8089001F01AFCF5B1AB6B1E
:1019100095F8202049EA03030A2AAB630ED00B2A6C
:10192000E5D16A6A13409A42E1D16F62284601F01C
:10193000E7FC2468A045DDD1BDE8F8836A6A13425C
:10194000D5D06F62284601F0DBFCF2E772B6044B9B
:10195000044ADA62FEE772B6014B034ADA62FEE736
:101960004027002010570008F05600080000000033
:10197000F8B5C36A1E69B207044618D1F30615D537
:10198000E36A10251D61202383F3118801F040FBD9
:1019900001F066FD04F120002946FFF799FF01F0F0
:1019A00047FD01F01DFB002383F31188F8BD5A6940
:1019B00022F010025A61202383F3118801F028FBE2
:1019C00001F04EFD206904F1100585421FD0036827
:1019D000236190F820205D60042A04D072B6124B77
:1019E000124ADA62FEE70027476201F089FC2069AB
:1019F00085420CD00368236190F820205D60042AA2
:101A0000ECD1476201F07CFC20698542F2D104F1FF
:101A100018000221FFF75CFF01F00AFD01F0E0FA77
:101A2000002383F31188A9E740270020806B00087A
:101A300038B5C36ADD68AA07044618D1EB0615D588
:101A4000E36A1025DD60202383F3118801F0E0FABA
:101A500001F006FD04F120002946FFF739FF01F0EF
:101A6000E7FC01F0BDFA002383F3118838BD5A6901
:101A700022F002025A61202383F3118801F0C8FA90
:101A800001F0EEFC04F1100002F04AFB04F1180032
:101A90000121FFF71DFF01F0CBFC01F0A1FA0023AB
:101AA00083F31188CAE700BF0000000000000000B7
:101AB000C26A38B59368936013F00104054605D0F7
:101AC00013F00C0F14BF4FF480340124D90506D550
:101AD00013F4406F14BF44F4003444F00204DA03FA
:101AE00006D513F4402F14BF44F4802444F00404BA
:101AF000202383F3118801F08BFA01F0B1FC05F18A
:101B0000080002F00DFB05F11C002146FFF7E0FE86
:101B100001F08EFC01F064FA002383F3118838BDD4
:101B200010B52023044683F3118801F079FA01F0FF
:101B3000F7FC01F005FB1248124B02681968E31D1F
:101B400023F00703891A8B429DBF9B18036014463C
:101B5000002401F0D5FC01F04BFA0B4B1A689A42B5
:101B600004D0996992688968914204D3002383F371
:101B70001188204610BD72B6044ADA62FEE700BF43
:101B800008080020002000204027002050570008AF
:101B90002DE9F04F83B083460193D0F81C9017468F
:101BA000002A6ED08846202686F3118801F038FA84
:101BB000384C01F0B5FC0025A24601F0C1FADBF873
:101BC00008305846002B3ED0DBF81420DBF80830F4
:101BD000511C013BCBF81410CBF8083098F80030BA
:101BE0001370DBF81030DBF814209A4224BFDBF8C6
:101BF0000C30CBF81430B9F1000F00D0C84701F019
:101C00007FFC01F0F5F92368224AA34205D0DAF8F7
:101C100018109B68896899422FD3002383F3118899
:101C2000013F05F1010508F1010822D086F3118872
:101C300001F0F6F901F074FC01F082FADBF80830EB
:101C40005846002BC0D15846019901F041FB0028AD
:101C5000B3D001F055FC01F0CBF922680D4BA24244
:101C600004D099699268896891420FD3002383F365
:101C70001188284603B0BDE8F08F72B6064BD362D8
:101C8000FEE772B6034B054ADA62FEE772B6024A15
:101C9000DA62FEE74027002040570008605700083E
:101CA0003030FFF775BF00BF0000000000000000EB
:101CB00030304FF0FF33FFF76BBF00BF0000000074
:101CC000F8B504460F461646202383F3118801F029
:101CD000A7F901F025FC03E001F0FAFA051E28DB64
:101CE00001F02EFAA36820463146002BF4D0626939
:101CF000A368511C013B6161A3601770236962698D
:101D00009A4224BFE3686361E3690BB120469847B8
:101D100001F0F6FB01F06CF9134B1A689A4204D0FB
:101D2000996992688968914219D3002080F31188DB
:101D3000F8BD01F0E5FB01F05BF90B4B1A689A4224
:101D400004D0996992688968914204D3002383F38F
:101D500011882846F8BD72B6044ADA62FEE772B608
:101D6000024ADA62FEE700BF402700204057000821
:101D70003030FFF7A5BF00BF0000000000000000EA
:101D800030304FF0FF32FFF79BBF00BF0000000074
:101D90002DE9F04F83B09946C369019382461446FA
:101DA000002A65D00E464FF0200888F3118801F014
:101DB00037F9364D01F0B4FB013C00273444AB4603
:101DC000019B33B15046984703E001F081FA0028A7
:101DD0003AD101F0B5F9DAF8083050464946002BFF
:101DE000F3D0DAF81820DAF80830511C013BCAF8B1
:101DF0001810CAF8083013783370DAF81030DAF8AF
:101E000018209A4224BFDAF80C30CAF8183001F0D2
:101E100077FB01F0EDF82B681C4AAB4205D0DBF8EC
:101E200018109B688968994227D3002383F311888F
:101E3000A64207F1010717D0013688F3118801F097
:101E4000EFF801F06DFBBBE701F05AFB01F0D0F8B1
:101E50002A680E4BAA4204D0996992688968914217
:101E60000FD3002383F31188384603B0BDE8F08F09
:101E700072B6064B064ADA62FEE772B6054BD362CB
:101E8000FEE772B6034ADA62FEE700BF4027002091
:101E9000E056000840570008000000000000000065
:101EA0000C30FFF775BF00BF00000000000000000D
:101EB0000C304FF0FF33FFF76BBF00BF0000000096
:101EC00070B5202304460E4683F3118801F0A8F86C
:101ED00001F026FBE36933B12046984703E001F0A7
:101EE000F7F9051E25DB01F02BF9A36820463146E2
:101EF000002BF4D0A169A36820694A1C013B8242EF
:101F0000A360A26128BFE3680D7828BFA36101F038
:101F1000F7FA01F06DF8114B1A689A4204D09969EA
:101F200092688968914215D3002383F3118828466B
:101F300070BD01F0E5FA01F05BF8084B1A689A42AF
:101F4000F2D09969926889689142EDD272B6044ADA
:101F5000DA62FEE772B6024ADA62FEE74027002044
:101F600040570008000000000000000000000000D2
:101F70000C30FFF7A5BF00BF00000000000000000C
:101F80000C304FF0FF31FFF79BBF00BF0000000097
:101F90000369C1689942024604D04168C85C0133B4
:101FA000136170476FF00100704700BF0000000030
:101FB000C36882689A4206D04268D154C36801332C
:101FC000C360002070476FF0010070470000000000
:101FD00038B5054608462B69EC686968E41A9442EE
:101FE00028BF144619442246FEF79AF92B69234468
:101FF0002B61204638BD00BF00000000000000003B
:1020000038B5C3688468E41A05469442406828BF1E
:10201000144618442246FEF783F9EB682344EB602C
:10202000204638BD00000000000000000000000055
:102030002DE9F04F87B015460DF10D0303AA9B1A49
:1020400081468A4601934FF000088B469BF80010AA
:102050000BF1010379B1252911D0D9F800209B4655
:102060009268484690479BF8001008F101080BF170
:1020700001030029EFD1404607B0BDE8F08F9BF87F
:1020800001202D2A03BF9BF802200BF102034FF021
:10209000010A4FF0000A302A03BF5A780133302773
:1020A0002027591C002606E02B7804359BF80020D9
:1020B00003EB40060131A2F13003DBB2092B8B4662
:1020C00006EB8600F2D92A2AEED02E2A4FF0000124
:1020D00043D002F0DF034C2B4ED0A2F14400342851
:1020E00000F2F780DFE810F0EA00F500F500F500F7
:1020F000F500EA00F500F500F500F500F500E80050
:10210000F500F500F500F500F500DD00F500F5003F
:10211000F200F500F500F500F500F500F500F5001A
:10212000F500F500F500A100EA00F500F500F50066
:10213000F500EA00F500F500F500F500F500E8000F
:10214000F500F500F5007100F500DD00F500F50083
:10215000F2002B78043503EB40011BF8012BA2F1B0
:102160003003DBB2092B01EB8100F4D92A2AF0D02D
:1021700002F0DF034C2BB0D19BF80030002B00F0B5
:10218000A880A3F144020BF1010B342A00F2A080D5
:10219000DFE802F0949E9E9E9E949E9E9E9E9E923E
:1021A0009E9E9E9E9E879E9E9C9E9E9E9E9E9E9E68
:1021B0009E9E9E4B949E9E9E9E949E9E9E9E9E92B2
:1021C0009E9E9E1B9E879E9E9C002C685A4B002CB8
:1021D00008BF1C4604352378002900F09480002BAA
:1021E00000F096800139204601E0013903D410F84F
:1021F000013F002BF9D1001B361A431E202726EA87
:10220000E676BAF1000F1FD0002B009334DA002ECF
:102210003FF41CAF3446D9F8003048469B68394635
:102220009847013CF7D1B04410E72B688DF80C308B
:10223000019B043518462027013B03AC361A26EAD9
:10224000E676BAF1000FDFD10093C6F1000ABAF1C9
:10225000000F45D021782D2947D05646D9F80030B7
:1022600048469B68394698470136F7D1009B002BBA
:10227000CAEB0808FFF6EAAEDDF800A0D9F8003096
:1022800014F8011B9B680AF1FF3A48469847BAF1D7
:10229000FF3FF3D1009B08F10108002BA8BF984431
:1022A000B5E70A22296803A8043501F0F1FF03AB62
:1022B000C01A431E03ACC1E70822F3E729680029CE
:1022C00005F104052EDB03A80A22EEE71022E9E758
:1022D0001A46019B8DF80C20184603AC013BADE774
:1022E000009B002B5646C7DAB0E6302FB5D1D9F89F
:1022F000003048469B689847009B013B013408F139
:1023000001080093A9E747F6FE71002B7FF46BAF3D
:1023100026EAE676BAF1000F0BD14FF0FF330093B7
:10232000202792E72D2349428DF80C300DF10D0046
:10233000CAE720276BE700BFB06700080000000075
:102340000EB400B582B003AA52F8041B0192FFF745
:102350006FFE02B05DF804EB03B0704700000000B0
:102360002DE98048374E384BB269384991611022C7
:102370001A8389B0202383F31188354C00F050FE76
:1023800001F0CEF800F094FE6069B569002832D003
:10239000AA6883689A4213D990F820308260062B8D
:1023A00000F08B82072B00F06D824BB990E80C0097
:1023B000012180F820101A600268536000F0A0FF2D
:1023C000244A13461B68934203D09868A968884240
:1023D000F8D2596869602B6006200D605D606A6202
:1023E00000F076FE62691B4B954200F05E8272B689
:1023F000194BF362FEE7EA6B656104F10C03A2611D
:10240000EB6301F07DF800F0F3FD32680D4BB24252
:1024100005D09969926889689142C0F05785002378
:1024200083F31188202383F3118800F0F9FD01F074
:1024300077F82278064D531E012B11D972B6074B3F
:10244000F362FEE74027002000080240B86700085A
:1024500094210020A0210020E0670008F067000818
:10246000E04B6B60012A00F0E6815989E36AA26AB9
:10247000080523F4F04348BF43F4205322F4F0420C
:10248000E36248BF42F42052E369A26241F4417121
:1024900000200722186019605A601A6842F0400252
:1024A0001A600223237001F02BF800F0A1FD3268BE
:1024B000CD4BB24205D09969926889689142C0F0CB
:1024C000D581002484F31188C84E01250A20758324
:1024D00001F046F80A20358301F042F8284602F060
:1024E00027F9112002F024F94FF4966001F038F832
:1024F000B12002F01DF9284602F002F92C2002F06A
:10250000FFF82D2002F0FCF8B22002F011F9284665
:1025100002F0F6F82C2002F0F3F82D2002F0F0F88B
:10252000B32002F005F9284602F0EAF82C2002F068
:10253000E7F82D2002F0E4F8284602F0E1F82C201C
:1025400002F0DEF82D2002F0DBF8B42002F0F0F803
:10255000072002F0D5F8C02002F0EAF8A22002F02D
:10256000CFF8022002F0CCF8842002F0C9F8C12094
:1025700002F0DEF8C52002F0C3F8C22002F0D8F85D
:102580000A2002F0BDF8204602F0BAF8C32002F09B
:10259000CFF88A2002F0B4F82A2002F0B1F8C42063
:1025A00002F0C6F88A2002F0ABF8EE2002F0A8F89C
:1025B000C52002F0BDF80E2002F0A2F8362002F08D
:1025C000B7F8C82002F09CF8E02002F0B1F8022031
:1025D00002F096F81C2002F093F8072002F090F821
:1025E000122002F08DF8372002F08AF8322002F033
:1025F00087F8292002F084F82D2002F081F82920A4
:1026000002F07EF8252002F07BF82B2002F078F80B
:10261000392002F075F8204602F072F8284602F0E0
:102620006FF8032002F06CF8102002F069F8E12046
:1026300002F07EF8032002F063F81D2002F060F83B
:10264000072002F05DF8062002F05AF82E2002F072
:1026500057F82C2002F054F8292002F051F82D20D0
:1026600002F04EF82E2002F04BF82E2002F048F82F
:10267000372002F045F83F2002F042F8204602F0F1
:102680003FF8204602F03CF8022002F039F8102012
:1026900002F036F82A2002F04BF8204602F030F81B
:1026A000204602F02DF8204602F02AF87F2002F0A2
:1026B00027F82B2002F03CF8204602F021F82046B3
:1026C00002F01EF8204602F01BF89F2002F018F8D6
:1026D0003A2002F02DF8052002F012F8292002F02D
:1026E00027F8642000F03CFF2C2002F021F8404A3B
:1026F0004049414B14802A204FF651420C801A80E9
:1027000002F016F8204601F0FBFF204601F0F8FF2A
:10271000204601F0F5FF7F2001F0F2FF2B2002F0B0
:1027200007F8204601F0ECFF204601F0E9FF2046C3
:1027300001F0E6FF9F2001F0E3FF2C2001F0F8FFFD
:102740004FF4A044FC20013C01F0DAFFA4B2512078
:1027500001F0D6FF002CF5D12849294DDFF8BCB097
:1027600001222346204626460A704FF0200A4FF6E3
:102770005149244C411E05EB010C2144224C01918E
:102780009A1E04EB020E2149214CA7180BEB020400
:102790000A4401994FF0000808F10108B8F10A0F46
:1027A0000CF801AF2EF8026F27F8029F01F801AF75
:1027B00024F8026F22F8029FEED10A30C82803F1F4
:1027C0001403D6D103200121124ADFF854A001F0EE
:1027D00087FD03200221104A01F082FD074B1B7880
:1027E00020E000BFA057000840270020000402405E
:1027F000322F00204C310020302F00200408002010
:102800003C22002004230020382F002050310020DB
:1028100004200020C4670008D4670008A02D002011
:10282000B0570008032B00F2CE82DFE813F021023C
:102830009401F1005F00286A9E4901F0A1FCE8B90B
:10284000686A9D4901F09CFCA0B99C482F6A6B6A9C
:10285000416CEA69D7F800E01F686B680C3241F4FC
:1028600080514164CEF80820BA60FEE572B6944A01
:10287000DA62FEE772B6934BF362FEE772B6914BF3
:10288000F362FEE790E80A0019600768416A7B601E
:102890000B461B68994202D09F689742F9D25A684A
:1028A00042600360106058608AE5EA6B9A423FF428
:1028B000A8AD72B6844BF362FEE790E80A00196097
:1028C0000768416A7B600B461B68994202D09F688B
:1028D0009742F9D25A684260036010605860886875
:1028E000AA6883689A423FF657AD69E513230793B8
:1028F00000230493049B07990733DBB20693CBB202
:1029000001EB810C039300234FEA4C0601939DF8E1
:1029100004700398394601F06BFD002800F0AB828B
:10292000BDF9049009F1010BBBF1070F00F3BC8264
:102930000124A04602965E46A3464C46DDF80C9064
:1029400007E01FFA83F80FFA88FB0BEB0406072E4B
:1029500009DC07EB0801C9B2484601F049FD08F15E
:1029600001030028EDD15C461FFA88F3B346029EAE
:1029700005932401019F069B04994FEA0B1238012D
:10298000013AD2B200F0F000BFB2019701F0E8FEC8
:1029900007230293B346002C40F35F82029B8027FB
:1029A00000261F4130464FF010081AE01BB218FBFA
:1029B000003301361AF803303B4215BF434B444BFA
:1029C00033F8119033F812904FEA192001F098FE75
:1029D000B6B25FFA89F001F093FE30B2A04280F205
:1029E0003C82002801993B4B0246B8BF00F10F0220
:1029F00001EB221212B203400BEB02000146002B46
:102A0000285C0A46D2DA013B63F00F030133CDE7BD
:102A100000234FF0090B0393039B0F33DBB20593A5
:102A20005FFA8BF302930F26F7B23846029901F052
:102A3000DFFC002800F0DF8134B2002C40F341823B
:102A40004FF001090196C8462646029C07E01FFA8E
:102A500083F80FFA88F9C9EB0603002B09DBC8EBF2
:102A60000700C0B2214601F0C3FC08F101030028B1
:102A7000EDD134461FFA88F3019E04934FEAC9074B
:102A8000C4F10F0404EB0902D200E000013AB4B231
:102A9000D2B200F0F8000399059B019401F060FEAA
:102AA0000F24002F40F39E814FF0000980264946F5
:102AB00032E000BFB10B00085107000800380240A7
:102AC000C06B000880570008E0670008382F00201E
:102AD000042000200F00008012B21AF80000C2F19A
:102AE000070246FA02F2024215BFB94BB94A33F85F
:102AF000118032F8138009F101094FEA182001F022
:102B0000FFFD1FFA89F95FFA88F001F0F9FD0FFA6D
:102B100089F1B94280F26681AF4A00290B4602EA88
:102B20000102B8BFCB1D0199A1EBE3031BB24FEA31
:102B3000830E0EEB03000BEB40000146285C4FF0C8
:102B4000100E002A1EFB00400B46C5DA013A62F067
:102B500007020132C0E707230593002303939DF882
:102B60000C300293DB00DBB206930724E6B2314659
:102B7000029801F03DFC002800F05B8127B2002F95
:102B800040F396814FF0010BD846DDF8089007E03E
:102B90001FFA83F80FFA88FBCBEB0703002B09DB46
:102BA000C8EB0601C9B2484601F022FC08F1010356
:102BB0000028EDD11FFA88F304934FEA0B16C7F1F2
:102BC000070707EB0B021201013A38010699059B32
:102BD000D2B200F0F00001F0C3FD039B03EB8301D0
:102BE0000023A4B24FEA410B0193002E40F317815A
:102BF000019B4FF000098022494642FA03F71FE08B
:102C00001BB2C3EB00137548034409F1010913F823
:102C1000013C3B4215BF6E4B6E4B33F8118033F8CD
:102C200012804FEA182001F06BFD1FFA89F95FFA54
:102C300088F001F065FD0FFA89F1B14280F2EF8072
:102C400000290A46B8BF01F10F02A4EB221212B20A
:102C50000BEB0200624B0B400146285C002B00F19D
:102C600001000A46CCDA013B63F00F030133C7E7EA
:102C70000F2303934FF0000B5FFA8BF302931B01BA
:102C8000DBB20593002301939DF80440029920468E
:102C900001F0AEFB002800F08480BDF9048008F14B
:102CA0000109B9F10F0F00F3088101263746CDF86D
:102CB00010B0CB46B1464646DDF8088007E09FB22B
:102CC0000FFA87F909EB060BBBF10F0F07DCE019D0
:102CD000C0B2414601F08CFB7B1C0028EFD14E4670
:102CE000BBB2D946F600DDF810B00493019C0599FB
:102CF000039B4FEAC902E000013AA4B2D2B200F04D
:102D0000F800019401F02CFD0024002E40DD4FF06E
:102D10000009802749461CE01AF8000012B247FA61
:102D200002F2024215BF2A4B2A4A33F8118032F8C8
:102D3000138009F101094FEA182001F0E1FC1FFAA4
:102D400089F95FFA88F001F0DBFC0FFA89F1B142F2
:102D50001EDA214A00290B4602EA0102B8BFCB1D48
:102D6000019901EBE3031BB24FEA830E0EEB030064
:102D70000BEB40000146285C4FF0100E002A1EFBB2
:102D800000400B46C8DA013A62F007020132C3E79D
:102D90000134102CB9D1019B5F1E049B3B449BB2B4
:102DA0000193019F0137BBB201931BB20F2B7FF739
:102DB0006BAF039B0BF1010B1033DBB2BBF10A0FBE
:102DC00003937FF459AF4FF47A7000F0C9FB05E527
:102DD000382F00200420002007000080B057000892
:102DE0000F00008014F1FF34BFF45BAE019E049B22
:102DF0000136F61AB6B2013EB6B233047FF514AE10
:102E0000039B0BF1FF3B1033DBB2BBF1FF3F03939E
:102E10007FF402AE4FF47A7000F0A2FBDEE4019B77
:102E20000133082B01937FF4E0AE049B0134E41AD4
:102E3000A4B2013CA4B222047FF598AE059B039A8C
:102E400008330132DBB2142A039205937FF487AE74
:102E50004FF47A7000F084FBC0E4029B013B0293C4
:102E600001337FF498AD019B03F1FF38059B434488
:102E70009BB25E460193019B03F101081FFA88F3A0
:102E800001931BB2072B7FF742AD049B079A0833CF
:102E9000013A0792DBB2013204937FF42BAD4FF479
:102EA0007A7000F05DFB99E401231024059361E53D
:102EB000012304939B46102681E6012308260493F0
:102EC00014E70123049399460827D9E572B6014A0D
:102ED000DA62FEE7905700080000000000000000E2
:102EE0000D4B42685B6870B48B608668C168D0E93E
:102EF00004459B1BE41845F100059342026888BF16
:102F0000436001319342C0E90445C160836038BF2A
:102F1000036070BC704700BF001000E000000000BC
:102F20000C4A4FF08041D36B10B44C6A91695960E0
:102F30001C60416A996090F820101973103302F5F3
:102F400088618B4228BF02F14003D3635DF8044BD4
:102F5000704700BF40270020000000000000000074
:102F6000FEE700BF000000000000000000000000BD
:102F7000202383F31188054AD2F8A8340133C2F81C
:102F8000A834002383F31188704700BF4027002036
:102F90000F4B10495A688368F0B4D1F8A0744168A7
:102FA000C668D0E90445D31ADB1BE41802688360C5
:102FB00045F100058B4206F1010688BF436093424C
:102FC000C660C0E9044538BF0360F0BC704700BF6D
:102FD000001000E04027002000000000000000007A
:102FE0000148FFF7D5BF00BF082C002000000000FB
:102FF0000148FFF7CDBF00BFF02B0020000000000C
:10300000014B5B6883607047001000E00000000027
:103010000148FFF7F5BF00BF082C002000000000AA
:103020000148FFF7EDBF00BFF02B002000000000BB
:1030300070B51B4D2A68AC691368A1682B60012626
:1030400000205D6082F82060AA6184F8200000E022
:103050001B689A688A42FBD85A68626023602046DF
:1030600014605C60FFF75CFFD5F8AC34A9690C4EC6
:103070000133483104F14800C5F8AC34FFF730FFA4
:10308000EFF30983E269643B9A4205D8B0692146AF
:10309000BDE87040FDF71CB972B6024BF362FEE763
:1030A00040270020306800080000000000000000F9
:1030B000054B1A6B1AB95A6B002A00DD704772B6BD
:1030C000024ADA62FEE700BF40270020406800089D
:1030D00070B5164C0646FFF7EBFF2368A5691A6822
:1030E00085F8206001215460284683F82010226072
:1030F000A361FFF715FFD4F8AC34A169013305F1E2
:1031000048004831C4F8AC34FFF7EAFEEFF3098316
:10311000EA69643B9A4205D8A0692946BDE8704037
:10312000FDF7D6B872B6024BE362FEE740270020F7
:1031300030680008000000000000000000000000EF
:10314000054B1A6B002A03DB5A6B002A00DD70471F
:1031500072B6024ADA62FEE740270020486800089B
:103160002DE9F0430C4687B00746FFF7A1FF631C2B
:1031700056D0534ED6F81890FFF7E2FF1CB972B63E
:10318000504BF362FEE7B046012C58F81C5F4E49E5
:10319000CDF814904FF0804208BF02244545536A91
:1031A000049146D0B06A1B1AE418AB6855D32D6859
:1031B000E41AAB689C4204D92D68E41AAB68A342B8
:1031C000FAD36B6802930DF104090195C3F80090DE
:1031D000C5F804900394AB684FF0FF321B1BAB6043
:1031E00072623846FFF774FFFFF7AAFF049BDBB15A
:1031F000FFF7A6FFF36932494B4535D0029A019B90
:103200001360019B002143455A6004910CD09968DA
:10321000039A0A449A60B369586A07B0BDE8F0831C
:103220003846FFF755FF264EB369586A07B0BDE828
:10323000F0830394B362D16801950DF1040911F094
:10324000020102951C44C6F81C90C6F820902AD1B1
:10325000022354631161D360C3E79C42AAD2204485
:10326000FEF76EF8AB68A5E7019ACA6100234245F4
:10327000C2F8048004931AD003989368896A0344BF
:103280004FF080409360406A421A9342CCD99B1A17
:10329000012B98BF02231844FEF752F8B369586A0D
:1032A00007B0BDE8F08372B6084BF362FEE74FF05B
:1032B0008042D360B369586A07B0BDE8F08300BFAD
:1032C00040270020006900089134000810690008B8
:1032D00069B1084B10B4024644689B69042083E836
:1032E0001400236053605DF8044BFFF739BF4FF0C3
:1032F000FF30704740270020000000000000000061
:1033000010B50446FFF71CFFCCB194F820308BB108
:103310000F2B0FD00022A1680B4B84F820201B68D4
:103320009A688A42FBD25A68626023602046146021
:103330005C6010BD72B6044B044ADA62FEE772B6F6
:10334000014B024ADA62FEE74027002020690008AC
:10335000036873B193F82020032A04D072B6054B9A
:10336000054ADA62FEE70022026018465962FFF75A
:10337000C7BF704740270020106800080000000009
:10338000104DAC6908B5A36A606204F128069E423C
:1033900007D01A68A2621846FFF7B2FFA36AB342C9
:1033A000F7D194F821309B0704D1636922691A612F
:1033B000226953610F20FFF78BFE72B6024BEB625E
:1033C000FEE700BF40270020306900080000000031
:1033D000202383F31188074B1A6B002A01DD596BF8
:1033E00019B172B6044ADA62FEE7013A1A6381F350
:1033F0001188704740270020506800080000000036
:10340000202383F31188074B1A6B002A01DB596BC9
:1034100019B172B6044ADA62FEE701321A6381F327
:1034200011887047402700205868000800000000FD
:10343000064B1A6B002A05DD5A6B002A02DD0022BA
:103440005A63704772B6024ADA62FEE740270020EC
:10345000606800080000000000000000000000009C
:10346000064B1A6B002A01DD5A6B1AB172B6044A78
:10347000DA62FEE701225A63704700BF402700204E
:103480006868000800000000000000000000000064
:1034900038B50446202383F31188FFF7B9FDFFF701
:1034A000DFFF94F82030072B10D8DFE803F0150F6A
:1034B0000F1D0A040F0A656AFFF742FEAB6801336D
:1034C000AB6094E80C001A60226853604FF0FF3341
:1034D00063622046FFF714FFFFF7AAFFFFF780FDA6
:1034E000002383F3118838BD636A00221A604FF00D
:1034F000FF3363622046FFF703FFEDE700000000A3
:10350000054B1A6B22B9596B002901DD5A637047CC
:1035100072B6024ADA62FEE74027002070680008AF
:10352000054B1A6B0AB95A6B1AB172B6034ADA62C2
:10353000FEE701225A6370474027002078680008A0
:1035400008B50446202383F31188FFF769FDFFF7D0
:10355000E7FF2046FFF714FF000000000000000016
:1035600010B52023044683F31188FFF759FDFFF7B8
:10357000D7FFA4B121460820FFF7F2FDFFF7C0FFF7
:10358000FFF736FD0A4B1A689A4204D0996992688F
:103590008968914208D3002383F3118810BD72B665
:1035A000034B044ADA62FEE772B6034ADA62FEE7C8
:1035B0004027002040690008006A00080000000061
:1035C0002DE9F04F1746984683B004468A4600F12D
:1035D00060050346FF2203F8012B9D42FBD104EB5B
:1035E0000A02954205D22B46552103F8011B93424E
:1035F000FBD1202383F31188FFF712FDFFF790FF23
:10360000FFF79EFD002C00F08380BAF5B87F7FD3D2
:103610007F2F7DD8B8F1000F7AD0494EDFF8349172
:103620007369AAF16401214404F12C0201920C9AFD
:10363000E1600020C1F840804A64C1F86090019ABE
:1036400063614FF0010C04F1280E4FF0020A4FF0B5
:10365000FF3B4FF000084FF00009A760266184F897
:103660002100E063A063A061276484F820A084F8AF
:1036700022C01C61E06420656065E561C4F828E053
:10368000E2622263C4F848B0C4E916897461FFF7A6
:103690000FFD3368B069B3424FD09A688368934294
:1036A00047D300229F4262623FD9FFF729FE0123E0
:1036B00084F820300546B461FFF732FCD6F8AC340C
:1036C0001F4F013305F1480004F14801C6F8AC343E
:1036D000FFF706FCEFF30983EA69643B9A4220D8BE
:1036E00029462046FCF7F4FDFFF70AFFFFF780FCB0
:1036F0003268134BB24204D099699268896891424A
:103700000BD3002383F31188204603B0BDE8F08F6C
:1037100072B60B4B0B4ADA62FEE772B60A4ADA62FD
:10372000FEE772B6094BFB62FEE72046FFF7E8FDB5
:10373000DAE772B6064BF362FEE78368B1E700BFD3
:103740004027002000680008006A00083068000870
:1037500020680008E90200080000000000000000E6
:10376000FEE700BF000000000000000000000000B5
:10377000F0B4114E002506F1800796E81A00A34226
:103780000DD204391A4651F8040F42F8040BA24234
:10379000F9D3DA43144424F0030404342344F268D4
:1037A000934203D243F8045B9342FBD31036BE42EC
:1037B000E3D3F0BC704700BF806800080000000041
:1037C000FEE700BF00000000000000000000000055
:1037D000704700BF00000000000000000000000073
:1037E000704700BF00000000000000000000000063
:1037F000DD4BDE4C1A694FF0FF3100222DE9804885
:1038000019611A61586959615A61186A60F08050EB
:1038100018621A62586A59625A62196C41F08051F2
:103820001964216841F480712160196F01F44071BD
:10383000B1F5007F8BB003D04FF4803119671A6760
:10384000CA48CB4C4368CB4FCB4E002123F40073C6
:1038500043600A460B462160BC58C648216046F8C2
:1038600033100133102B02F10C024FF00005F3D19D
:10387000DFF81CB3C14FBC49DFF818A3C04CDFF818
:103880001893C04ADFF81483DFF814C3DFF814E399
:103890004FF0FF36CBF80860CBF80C60BE60FE60DE
:1038A0000F6BDFF804B36FEA57276FEA47270F6300
:1038B0000F6D6FEA57276FEA47270F65CAF8045064
:1038C0004FF6FF77CAF80860CAF80CB0DFF8DCB230
:1038D000CAF81470CAF820B04FF4192BCAF824B0F3
:1038E000DFF8CCB2CAF800B04FF4407AC4F804A0B4
:1038F000DFF8C0A2A660C4F80CA0DFF8BCA2676124
:103900002562C4F824A0DFF8B4A2C4F800A040F6F1
:10391000282AC9F80450C9F80860C9F80CA04FF467
:10392000A06AC9F81470C9F82050C9F82450C9F821
:1039300000A04FF4807ADFF888B2C8F80450C8F8C5
:103940000860C8F80C50C8F81470C8F82050C8F8BF
:103950002450C8F800A055609660D5605761156284
:1039600055621560CCF8045002F54062CCF808604E
:10397000CCF80C50CCF81470CCF82050CCF8245073
:10398000CCF80050CEF80450CEF80860CEF80C50B9
:10399000CEF81470CEF82050CEF82450CEF8005057
:1039A00055609660D5605761156255621560CBF819
:1039B0000450CBF80860CBF80C50CBF81470CBF85F
:1039C0002050CBF82450CBF800500A6CDFF8F4916B
:1039D000DFF8F4A16C4FC9F804504FF0010842F031
:1039E000007289F800808AF800800A64D7F8002203
:1039F000CAF80450120C120442EA0802C7F8002266
:103A0000AEF5D83ED7F80022CAF82CE009F11C0B1D
:103A100009F1180EC9F818E0C9F81CB009F1200C1A
:103A200009F1240E09F1280BC9F820C0C9F824E0D7
:103A3000C9F828B00AF1180C0AF11C0E0AF1200B83
:103A4000CAF818C0CAF81CE0CAF820B00AF1240C61
:103A500009F1080B0AF1280E42F46062CAF824C08A
:103A6000CAF828E009F1100C0AF1080EC9F82C7008
:103A7000C7F800220AF11002C9F808B0C9F80CB062
:103A800044F2010BC9F810C0C9F814C0CAF808E024
:103A9000CAF80CE0CAF81020CAF81420C7F840523F
:103AA000C7F84452C7F8B052C7F8B452C7F8045226
:103AB000C7F81452C7F80CB2C7F81CB2D7F8009276
:103AC000DFF808A1DFF808B1CAF8045029F00109AD
:103AD000C7F80092D1F84090CAF8145029F0007944
:103AE000C1F84090CAF834B000F1480B274ADFF81B
:103AF000E4E0CAF830B00AF10C0BDFF8DCC0CAF819
:103B00002C00CAF80CB0CAF810B0A7F5406700F155
:103B1000180B8AF80080CAF81C5000F1540A91462C
:103B2000CEF83470CEF82CB00EF10C07CEF830A0E1
:103B30004FF0040BDFF8A4A0CEF80C70CEF8107094
:103B40008CF810B08EF80080CEF80450CEF81450E7
:103B5000CEF81C508CF80080DFF884E0CCF80450DC
:103B6000CCF80C503EE000BF00380240007000402E
:103B700048310020106A0008C8300020006402406C
:103B8000000402400010024000640040C4210020F4
:103B9000006002400000024000080240000C0240A9
:103BA0000014024000180240AA0282160000505081
:103BB0005588812A8100050A007799004100A00AF2
:103BC00000200240840D0020B40D0020901F002032
:103BD00000540040C81F0020E40D0020000C0040ED
:103BE000E0690008CCF818A0DFF814A3B44F49F836
:103BF00004EB02F1740BDFF80CC3DFF80CE3C2F83E
:103C000040B0C2F84CC002F1540B02F1640CC2F88F
:103C100074E0AAF8006002F1300E02F10C0A55615E
:103C2000C2F804909363C2F80CA0C2F810A0C2F8C6
:103C300018B000F1600AC2F824B0C2F820B0C2F88F
:103C40001CC0C2F83CC0C2F848C0C2F844C0C2F8A8
:103C500030E007F10C0CC2F834E082F8088095627D
:103C6000D2621265DFF8A492DFF8A4B2954AC7F8D1
:103C70001C908430C7F820A07862C7F828B0C7F835
:103C80000CC0C7F810C087F800807D60BD607D6102
:103C9000FA620A6CDFF87CB28B4FDFF87CE2DFF867
:103CA0007CA28A48DFF87892DFF878C242EA0802FC
:103CB0000A64DBF808107F604FF0804241EA080197
:103CC000CBF8081042F2CF0191624FF0800B4FF019
:103CD0008051D66295615563D5605560C2F81480F5
:103CE000C2F800808AF81CB3CAF88011CAF8001024
:103CF000CEF80850DEF80C10BD604FF6FF020A4007
:103D00001043CEF80C00D9F80C203F6142F08072CD
:103D1000C9F80C20DCF800207F6107F11C0142EAA1
:103D200008024FF0000A4FF0000B4FF0200904A8E2
:103D3000CCF800208EF81F307E628EF82290F96158
:103D40003962BD623F60C7F8A05404960595069598
:103D50000795CDE908ABFFF753F904A8FFF718F969
:103D60005B4A5C495C4BDFF8C091DFF8C0C1786901
:103D70009D6007F5986ECEE900AB22F0070207F5CB
:103D80009B6E039221F00701069AC9F80010CEE954
:103D900000AB07F1400E03F11001C7F8A024C7F8EB
:103DA0003CE0039ADFF888E1CCF800204FF04009AE
:103DB00007F58862C3F800E019615961DD609D6113
:103DC00007F58D6E07F26C4307F59361DFF864C168
:103DD000C7F8A854C7F8AC54C7F8B064C7F8B454CF
:103DE000C7F8B854C7F8BC54C7F8C864C7F8CC546F
:103DF000C7F8D054C7F8D45487F86154C7F87C5436
:103E0000C7F8785487F86284C7F85854C7F85074D4
:103E1000C7F83890C7F84894C7F85404C7F8809496
:103E20000261C7F86C34C7F8703407F59160C7F8C1
:103E30008864C7F88C54C7F89054C7F8945487F82E
:103E40006084C7F868E4C1E900ABC7F85CC47A6174
:103E5000BA61FFF7D5F83B6B0BB97D6B1DB172B63C
:103E60001E4BFB62FEE785F3118862B6BB691C4AF4
:103E70009A614FF4C07142461A4B009507F59C6059
:103E8000FFF79EFB184B836100F0FAFA174B009383
:103E90004A46174B17484FF4AE61FFF791FB009568
:103EA0001548164B41F270113622FFF789FB636902
:103EB00083F00803636142F21070FFF751FBF6E7ED
:103EC0009421002046000106402700200003FA0547
:103ED00000000220E7320020701F002080690008E7
:103EE00060690008612F000888690008D06900082F
:103EF0008110000810080020000E00206123000837
:103F0000800D0020410700080048004000300140BB
:103F100016000106002004E000ED00E000E100E0F2
:103F2000F0ED00E0001000E0080800200020002074
:103F3000211B000800040020000000000000000019
:103F40002DE98048464D474E2B7AB269464991612A
:103F5000022BA3B001D000F093FA4FF080435C6ACB
:103F60005B6A64349C4267D9DFF8F8B0DFED3F8AC2
:103F70009FED3F8A02AF0DF10C080DF14C09202393
:103F800083F31188FFF74CF8FFF7CAFA4FF080432C
:103F90005B6AE11A02D00820FFF7E2F8FFF7B0FAF7
:103FA000FFF726F833682F4AB34205D0DBF8181024
:103FB0009B68896899424ED3002383F311882D4B67
:103FC000A3FB0432520B42F2107303FB1242A2F520
:103FD0009C53083B07EE903AB8EEE70A029220EEB7
:103FE000280A0DF1040A80EE080A00F029FC224B91
:103FF00001938DED120A2A681AF8011B926818487D
:104000009047BA45F7D1BA462A681AF8011B926858
:1040100013489047C245F7D10DF1480A2A681AF8AB
:10402000011B92680E489047CA45F7D14FF0804374
:1040300064345B6AA342A2D3032006210F4A104CCA
:1040400000F04EF9636983F0080363614FF47A70FE
:10405000FFF786FAF6E772B60A4BD362FEE700BFB7
:10406000C42100204027002090690008DB0F494050
:1040700000409C455917B7D1DDCCBBAA9869000810
:1040800000040240006A0008000000000000000078
:1040900010B582B0D9B111680B78A3F13002092AAA
:1040A00015D8002202EB820203EB420211F8013F15
:1040B000A3F13004092CA2F13002F3D93AB13C2A21
:1040C00028BF3C2242F2107404FB02F401E0094CC8
:1040D0000A220949FEF734F92046FFF741FA002386
:1040E00000934FF45C71054B05484022FFF768FAD6
:1040F00002B010BDA0860100406B0008413F0008DF
:10410000D02300200000000000000000000000009C
:104110000149FEF715B900BF6C6B000800000000F4
:1041200038B503460068834220D002681A6090F8D0
:1041300020105360042904D072B60D4B0D4ADA6288
:10414000FEE71C4600254562FFF7DAF82068844246
:104150000CD00368236090F820205C60042AEBD127
:104160004562FFF7CDF820688442F2D138BD00BF28
:1041700040270020806B00080000000000000000C5
:10418000002853D0F0B52C4E457A3268012303FA4B
:1041900005F7174246D1294CDFF8B0E044F8351056
:1041A00047EA020304EBC50413F0FF0F3360C4F8C1
:1041B00004E004D0224C226B42F40012226313F478
:1041C0007F4F29D10268136823F01F03136013681F
:1041D00013F00103FBD1057A46683D24AC4021254C
:1041E000346013605561F9B1817A4A09920001F196
:1041F000604402F1604202F5614204F5614401202D
:1042000001F01F0100FA01F1A02584F80053C2F863
:10421000801111601846F0BD094A136B43F4800306
:104220001363CFE71846F0BD0846F0BD72B6054BE4
:10423000054ADA62FEE700BF48310020C83000209E
:104240000038024040270020F06A00089421002036
:1042500038B50D46044690B1286020460B4900F061
:10426000CFFA04442046094900F0A2FA60B1421C8A
:1042700000232A600370237823B1204638BD0C68E0
:10428000002CEAD1002038BD2860F4E77C6B0008E0
:10429000F0B400F10B073C460D46B1FBF2F602FB11
:1042A000161101F13003392BC8BF01F13703DBB21E
:1042B00004F8013DB5FBF2F53146002DEDD13A1B76
:1042C000024401E014F8013F00F8013B9042F9D1AB
:1042D000F0BC70470000000000000000000000007B
:1042E0000CB42DE9F047C6B04EAA06AC52F8043B18
:1042F000364F009200260D4601A81946FF2301976C
:104300000393029404960596FDF792FE049B3049B0
:10431000304ADFF8D0E0304FB1F80090B2F80080BA
:10432000FE2B98BFE6542D4B2D4EB3F800C022460D
:104330000321002413784BB35B2B2ED05D2B33D09D
:104340000D2B28D00A2B26D0142924D80A2D22D8A8
:104350005C2B34D001EB810305EB430392F800A002
:1043600026F813C0002C14BF4846404614290EF806
:1043700003A002F1010227F813001CD00131C9B2D9
:104380001378092D88BF0025002BD5D146B0BDE894
:10439000F04702B070470132CCE712F8010C5C28FC
:1043A000D2D001320124C5E712F8010C5C28CBD031
:1043B00001320024BEE70135EDB20021E0E7537879
:1043C0005B2B01D05D2BC5D10132C3E7106B000818
:1043D0004C310020322F0020382F0020302F0020B9
:1043E000042000203C22002000000000000000000B
:1043F0002DE9F0418600331801EB43030246184CC7
:104400001848C55CE05CA84213D0174F174837F82E
:1044100013E0DFF860C0164F30F8138001203244FB
:1044200001EB4201655427F811E02CF81180BDE83A
:10443000F0810F4FDFF830E037F813003EF813E05B
:10444000DFF830C07045094830F8138001D00120F2
:10445000E5E73CF81300B0EB080018BF0120DEE7E9
:10446000042300203C220020382F002004200020BC
:10447000A02D0020503100200000000000000000AE
:1044800038B5202383F31188FEF7CAFDFFF748F8FB
:10449000254A137A591E012904D972B6234B244A9E
:1044A000DA62FEE7012B2DD0536F22498B4225D0D3
:1044B00001F580618B4221D04FF4B671996044F2CE
:1044C00040010020012542F22C1419615D61022196
:1044D000DC60186018685B681172FFF711F8FEF76E
:1044E00087FD124B1A689A4204D0996992688968CC
:1044F000914215D3002383F3118838BD40F2D921AE
:104500009960DCE70C4C0D4B216C8020C02541F4F8
:104510008021216483F82753C3F884015860C3E7DE
:1045200072B6074ADA62FEE7C42100204027002065
:10453000206B0008001001400038024000E100E05C
:10454000B06B000800000000000000000000000048
:1045500008B5202383F31188FEF762FDFEF7E0FF24
:10456000124B1A78022A04D072B6114B114ADA6241
:10457000FEE75B6819895A6801238B409BB253831D
:10458000FEF7BEFFFEF734FD094B1A689A4204D0CD
:10459000996992688968914203D3002383F3118853
:1045A00008BD72B6044ADA62FEE700BF942100201B
:1045B00040270020D06A0008C06B000800000000FF
:1045C00008B5202383F31188FEF72AFDFEF7A8FF24
:1045D000124B1A78022A04D072B6114B114ADA62D1
:1045E000FEE75B6819895A6801238B409BB21383ED
:1045F000FEF786FFFEF7FCFC094B1A689A4204D0CE
:10460000996992688968914203D3002383F31188E2
:1046100008BD72B6044ADA62FEE700BF94210020AA
:1046200040270020306B0008C06B0008000000002D
:10463000F8B5C0B10646202383F31188FEF7F0FCDD
:10464000FEF76EFF284B1A78022A04D072B6274B69
:10465000274ADA62FEE75A6812684AB172B6234BFB
:10466000234ADA62FEE772B6204B214ADA62FEE79D
:10467000196A5A6A0968DC6A12681E489F6AC8602B
:10468000012544F4806403204D6018700F60D660EB
:10469000556014600D68154C9F68A66945F00105CA
:1046A0000D60116841F0010111601FB172B6124B2B
:1046B000E362FEE743F8086F7362FEF709FDFEF759
:1046C0001FFFFEF795FC2368A34204D0A2699B68F4
:1046D00092689A4203D3002383F31188F8BD72B61F
:1046E000064BE362FEE700BF942100204027002034
:1046F000A06B0008342F0020E06A0008C06B00089F
:1047000010B582B002AC074B04F8010D20221A83C9
:10471000FFF71EFF2046FFF78BFFFFF751FF02B0A8
:1047200010BD00BF000802400000000000000000B3
:1047300010B582B002AC074B04F8010D20225A8359
:10474000FFF706FF2046FFF773FFFFF739FF02B0C0
:1047500010BD00BF00080240000000000000000083
:10476000F8B507462A200D4616461C46FFF7E0FF1F
:104770000020FFF7C5FF3846FFF7C2FF0020FFF714
:10478000BFFF3046FFF7BCFF2B20FFF7D1FF002013
:10479000FFF7B6FF2846FFF7B3FF0020FFF7B0FF93
:1047A0002046FFF7ADFF2C20BDE8F840FFF7C0BF63
:1047B00030B40478ECB10D78ADB1AC420ED00A46FD
:1047C00001E09C4209D012F8013F002BF9D110F80A
:1047D000014F002CF0D1157800E02546002D08BFD0
:1047E000002030BC704710F8014F0A46002CE3D17E
:1047F000F1E7204630BC70470000000000000000D8
:1048000070B40478A4B10E7805464EB1B4420AD013
:104810000A4601E09C4206D012F8013F002BF9D174
:10482000281A70BC704715F8014F002CEDD1F7E73E
:104830002046F6E700000000000000000000000035
:1048400000B510EE103A1B4A23F00043934283B0A8
:104850001ADDB3F1FF4F04DB30EE400A03B05DF820
:1048600004FB684600F02CF800F0030001289DEDE1
:10487000000ADDED010A15D002280DD0A8B100F024
:1048800067F9B1EE400AE9E7DFED0B0A002000F01E
:10489000DFFC03B05DF804FB012000F0D9FCB1EEB1
:1048A000400ADBE700F054F9D8E7012000F0D0FC23
:1048B000D4E700BFD80F493F00000000000000000F
:1048C00070B510EE103A944A23F00044944286B03A
:1048D00010EE106A054666DD904A94421ADC002B01
:1048E000DFED8F7A8F4A24F00F0440F3DD8094428D
:1048F00070EE677A66D09FED8C7A77EEC76A0120FA
:1049000077EEE67AC5ED006A77EEC77AC5ED017AF3
:1049100006B070BD854A944266DDB4F1FF4F49DAB6
:10492000E215863AA4EBC25307EE103AFDEEC76AD1
:10493000DFED7F7AF8EEE66A37EE667ACDED036A50
:1049400027EE277AFDEEC76AF8EEE66A37EE667A5A
:10495000CDED046A67EE277AF5EE407AF1EE10FAB3
:10496000CDED057A40F0B380F5EE406AF1EE10FA35
:1049700014BF022301236F4902208DE8030003A81E
:10498000294600F06DF9002E12DA95ED007AD5ED8A
:10499000017AB1EE477AF1EE677A404285ED007A0E
:1049A000C5ED017A04E0002285ED000A4260002096
:1049B00006B070BD70EE407A0020C5ED017AC5EDFD
:1049C000007AF5E7DFED5C6A9FED5C7A77EEE67AD8
:1049D000012077EEC76A77EEE67AC5ED006A77EEDA
:1049E000C77AC5ED017AE3E700F07AFCDFED546A9F
:1049F000DFED4B5A9FED4C7AF6EE007AE0EE267A28
:104A0000FDEEE77A17EE900AF8EEE76A1F28B1EE9E
:104A1000666AA6EE250A66EE877A1DDC494A411EC3
:104A200024F0FF0352F82120934215D030EE677A2C
:104A300085ED007A30EE470A002E30EE670A85EDEC
:104A4000010AB5DAB1EE477AB1EE400A85ED007A97
:104A500085ED010A4042ABE730EE677AE41517EEC8
:104A6000103AC3F3C753E31A082BE1DDDFED327AC6
:104A70009FED327AF0EE405AE6EE275A30EE650AA4
:104A8000A6EE270AF0EE407AD6EE877A35EEE77A80
:104A900017EE103AC3F3C753E41A192C2CDC85ED3A
:104AA000007AB0EE650AC5E7944270EE277A10D01E
:104AB0009FED1D7A77EE876A4FF0FF3077EEE67A4A
:104AC000C5ED006A77EE877AC5ED017A70E70323BA
:104AD00051E7DFED196A9FED197A77EEA67A4FF06C
:104AE000FF3077EE876A77EEE67AC5ED006A77EEFB
:104AF000877AC5ED017A5BE79FED137A9FED135A34
:104B0000B0EE650AA6EE070A75EEC07AE6EE077A01
:104B1000D6EE857A8AE700BFD80F493FE3CB16402F
:104B2000800FC93FD00FC93F43443537800F4943F9
:104B300000008043506C00080044353708A3852EE0
:104B400084F9223FD06B000800A3852E32318D24DA
:104B500010EE103A23F00043B3F1485F2CDAFDEE7B
:104B6000C07A17EE903A002B60D020EE007ADFED8D
:104B7000314A9FED315ADFED315A9FED316ADFED59
:104B8000317ADFED316AA7EE245AE5EE075AA5EE39
:104B9000876AE6EE077AE7EE876A66EE876A60EE76
:104BA000C00AB6EE006AE7EE260AF7EE007AD7EE04
:104BB000060A37EEE00A704720EE007ADFED1D4A64
:104BC0009FED1D5ADFED1D5A9FED1D6ADFED1D7A29
:104BD000DFED1D6A1D4AA7EE245A9342E5EE075AFF
:104BE000A5EE876AE6EE077AE7EE876A66EE876AE1
:104BF000D5DD174A934214DC03F17F4307EE903A68
:104C0000B7EE006A36EE676A60EEC00AF6EE005A4A
:104C1000E7EE260AD7EE257A77EEE07A36EE670AD7
:104C20007047B6EE076AF5EE027AEDE7B7EE000AD6
:104C3000704700BF4ED747ADF6740F317CF293B486
:104C4000010DD037610BB6BAABAA2A3D9999993EAE
:104C50000000483F000000000000000000000000CD
:104C60002DE9F04F2DED048BD7B05F1ED74C649D1E
:104C70000293D31E48BF131D54F825600191DB1029
:104C800023EAE3736FEA030BB9190393824602EB3D
:104C9000CB0BA3EB070314D41944659801311AAA6E
:104CA000002BAABF50F82340DFEDCC7A07EE904AE4
:104CB00003F10103A8BFF8EEE77A8B42E2EC017A38
:104CC000EED1002E1ADB029B1AA9741C01EB84049E
:104CD00042A89D00002FC0F2BA81DFEDC07A524693
:104CE0004B1933ED017AF2EC016A9942E6EE877ACC
:104CF000F7D10431A142E0EC017AEBD1029ADFED69
:104D0000B48A9FEDB48A06F18043013B9B00C2EB5D
:104D1000827906AA03F104081344904404934FEAED
:104D200089093446A50056AB2B44002C13ED140A18
:104D300018DD42A94B1905AA60EE287AB0EE407A38
:104D4000FDEEE77A73ED016AF8EEE77A8B42A7EEA3
:104D5000C87A37EEA60ABDEEC77A17EE100A42F8F7
:104D6000040FE9D1584600F00BFBB0EE409AB4EEC8
:104D7000000A29EE000A00F0BBFAF2EE007AA0EE7B
:104D8000679ABBF1000FFDEEC99AF8EEE97A39EEA9
:104D9000679A40F34181601E06AACBF1080352F8DE
:104DA000201041FA03F202FA03F30DF1180EC91AAA
:104DB0004EF8201019EE900A1044CBF1070309EECB
:104DC000900A1941002939DD19EE903A002C03F1BF
:104DD000010309EE903A40F3CB81002210460DF119
:104DE000140E08E0C3F5807C13B1CEF800C001209A
:104DF000013294420CDD5EF8043F0028F2D001320B
:104E0000C3F1FF039442CEF800304FF00100F2DC12
:104E1000BBF1000F10DDBBF1010F00F00481BBF10D
:104E2000020F09D1621E06AB0DF1180E53F82230A5
:104E300003F03F034EF82230022959D0B5EE409AD4
:104E4000F1EE10FA66D1631E9E420BDC06AA1544F1
:104E5000002255F8040D454542EA0002F9D1002A26
:104E600040F07081731E06AA52F82330002B40F0E8
:104E70007C81049B4FF0010E53F8042D0EF1010EBE
:104E8000002AF9D0A644631C73452FDC039A9D18B1
:104E9000029A05F18045A0180EEB020C659A013DBF
:104EA00002EB85051AAA02EB800002EB8C0C42AAE9
:104EB00002EB830455F8043F07EE903AF8EEE77AE8
:104EC000002FE0EC017ADFED457A0BDB524600EB78
:104ED0000901034633ED017AF2EC016A8B42E6EEFA
:104EE000877AF7D16045E4EC017AE3D1744619E79B
:104EF000B7EE000A30EE499A00289FD05846059137
:104F000000F03EFA39EE409A0599B5EE409AF1EE7E
:104F100010FA98D0B0EE490ACBF10000029100F0EF
:104F20002FFA9FED2C7A0299B4EEC70AF1EE10FA2F
:104F3000C0F27E81DFED267A60EE277A06A8FDEECC
:104F4000E77A631CF8EEE77A0BF1080BA7EEC70AC5
:104F5000FDEEE77ABDEEC00A10EE102A40F82420DC
:104F600017EE902A40F823205846B7EE000A039324
:104F7000029100F005FA039B0299002BC0F2C78052
:104F800003F1010E4FEA8E0242AC06A89FED107AA3
:104F90001044A71870ED017AF8EEE77A67EE807A90
:104FA00020EE070A67ED017AA742F3D1043A1744CD
:104FB0000025002EC0F2A880002DC0F2A580064C6E
:104FC000DFED067A384600220CE000BF706F000863
:104FD0000000803B00008043806F0008000000005C
:104FE000AA4208DCF4EC016AB0EC017A0132964284
:104FF000E6EE877AF4DA56AA02EB850201357545AA
:10500000A7F1040742ED287AD3D1649A032A5FD826
:10501000DFE802F0673737B010D1631E06AA52F8F6
:1050200023100912CEE6621E06AB0DF1180E53F8DE
:10503000223003F07F034EF82230FDE6F6EE007AD0
:10504000B4EEE79AF1EE10FA0ADA0021F6E65FED27
:105050001D7A0431A142E0EC017A7FF43BAE4DE6CB
:1050600019EE903A002C03F1010309EE903AC8BF03
:1050700002213FF7B2AEF7EE007A37EEC99A02216D
:10508000DCE62EAA5FED2B7A02EB8E0E3EED017A66
:10509000964577EE877AF9D1002943D0DDED2E6A67
:1050A000019AB1EE677A002B76EEE77A82ED007A0C
:1050B00009DD2FA80122B0EC017A0132934277EE8C
:1050C000877AF8DA09B1F1EE677A019BC3ED017ACC
:1050D00019EE903A03F0070057B0BDEC048BBDE821
:1050E000F08F2EAA5FED437A02EB8E0E3EED017A31
:1050F000013B5A1C77EE877AF8D109B1F1EE677A55
:10510000019BC3ED007AE3E75FED4C7A73E7649AA5
:10511000032ADDD8DFE802F0130202805FED517A46
:105120000029BBD19DED2E7A019A002BC2ED007AA9
:1051300077EE677ABDDC019BC3ED017AC8E75FEDCE
:10514000597ADAE706AAABF1080B52F82320002AB5
:105150007FF40AAF06AA02EB830252F8040D013B6A
:10516000ABF1080B0028F8D0FEE64FF0010E89E6FF
:1051700000204DE6002B4FDD9A0056A810442EADBE
:10518000141D10ED287A2C44A81870ED017A77EEE2
:10519000276AA84277EEE67A77EE277AB0EE667A4B
:1051A00064ED017AC0ED006AEFD1012B34DD131DEF
:1051B00056AC1444034414ED287A02442FAC18462C
:1051C00072ED017A77EE876AA24277EEE67A77EEA1
:1051D000877AB0EE667A60ED017AC2ED006AEFD1AF
:1051E0005FED827A30AA33ED017A934277EE877AC7
:1051F000F9D1A9B1DDED2E6A9DED2F7A019AF1EE7C
:10520000677AF1EE666AB1EE477AC2ED027AC2EDD4
:10521000006A82ED017A5BE75FED907A0029E9D1BF
:1052200001982E9A2F9BC0ED027A026043604FE7EF
:10523000BDEEC00A06A810EE102A234640F824202E
:1052400092E600BF00000000000000000000000027
:1052500010EE103A23F00043B3F1485F04DAFDEE9C
:10526000C07A17EE903A23B360EE007A9FED155A9C
:10527000DFED155A9FED156ADFED156A9FED157A82
:10528000E7EE855A27EE805AA5EEA76AE6EE276A72
:10529000A6EEA77A70B127EE457AF6EE006AA0EE88
:1052A000A67ADFED0D6AD7EE270AE5EE260A30EE84
:1052B000600A7047DFED096AE7EE876AA6EE850AA5
:1052C000704700BFD3C92E2F342FD7B21BEF38360B
:1052D000010D50B98988083CABAA2A3EABAA2ABE68
:1052E00010EE103A23F0004300EE103A704700BF72
:1052F00010EE102A22F00041CB0D7F3B162B17DC5D
:10530000002B10EE100A19DB1A491941114222D064
:10531000DFED197A70EE277AF5EEC07AF1EE10FA29
:1053200019DD002A18DB20EA010300EE103A70476D
:10533000B1F1FF4F0FD330EE000A7047DFED0E7A68
:1053400070EE277AF5EEC07AF1EE10FA03DD002A4E
:1053500008DB9FED0A0A70474FF4000242FA03F39C
:105360001844E0E70029FFEE007A18BFB0EE670AA4
:10537000704700BFFFFF7F00CAF2497100000000C4
:1053800008B510EE103A33F000422DED028B11D02B
:10539000B2F1FF4F11D2B2F5000F13D3D20D024478
:1053A000FE2A2EDC002A1ADD23F0FF4343EAC25313
:1053B00000EE103ABDEC028B08BDBDEC028B30EE66
:1053C000000A08BD1D4BDFED1E7A984220EE270A29
:1053D00022DB10EE103AC3F3C752193ADFE712F19D
:1053E000160F1EDA4CF2503398420ADC9FED158AF4
:1053F000F0EE400AB0EE480A00F02AF820EE080A63
:10540000D8E79FED118AF0EE400AB0EE480A00F0AE
:105410001FF820EE080ACDE7DFED0A0A20EE200A89
:10542000C8E7193223F0FF4343EAC253DFED077A9E
:1054300000EE103A20EE270ABCE700BFB03CFFFFA9
:105440000000004C6042A20DCAF249710000003316
:1054500010EE103A23F0004210EE903A03F00043B1
:10546000134300EE103A70470000000000000000F7
:10547000444D41206661696C7572650055736167C2
:10548000653A2025730D0A00696E666F0000000002
:105490004B65726E656C3A202020202020202573F9
:1054A0000D0A0000332E312E35000000436F6D7061
:1054B000696C65723A202020202025730D0A0000B7
:1054C00047434320342E392E3320323031353035A6
:1054D0003239202872656C6561736529205B415201
:1054E0004D2F656D6265646465642D345F392D628E
:1054F00072616E6368207265766973696F6E2032BF
:1055000032373937375D000041726368697465630B
:10551000747572653A2025730D0A000041524D766C
:1055200037452D4D00000000436F726520566172B3
:1055300069616E743A2025730D0A0000436F72741E
:1055400065782D4D34460000506F727420496E66A8
:105550006F3A2020202025730D0A000041647661F7
:105560006E636564206B65726E656C206D6F64653B
:1055700000000000506C6174666F726D3A2020204C
:10558000202025730D0A000053544D333246343029
:1055900035204869676820506572666F726D616E6C
:1055A000636520776974682044535020616E6420DD
:1055B00046505500426F6172643A2020202020201E
:1055C000202025730D0A0000524D32303137204D16
:1055D00061696E426F6172642053544D33324634B8
:1055E000303500004275696C642074696D653A203D
:1055F00020202573257325730D0A00005365702044
:105600002039203230313700202D200030383A3513
:10561000393A3530000000007368656C6C0000009A
:105620000D0A43686962694F532F525420536865CD
:105630006C6C0D0A0000000063683E200000000052
:105640005E440000746F6F206D616E792061726737
:10565000756D656E74730D0A0000000065786974DD
:105660000000000068656C7000000000436F6D6D05
:10567000616E64733A2068656C7020657869742087
:10568000000000002573200025730000203F0D0A54
:10569000000000000D0A6C6F676F75740000000059
:1056A00073797374696D6500256C750D0A000000CF
:1056B0006368537973556E6C6F636B000000000074
:1056C0008854000871070008A0560008B1120008AD
:1056D00000000000000000000000000000000000CA
:1056E000636849515265616454696D656F757400F2
:1056F000636845767442726F616463617374466C6B
:105700006167734900000000000000000000000015
:1057100063684576745369676E616C4900000000E8
:1057200063685654446F5469636B4900000000007D
:105730007374536574416C61726D00000000000069
:105740006368537973556E6C6F636B0000000000E3
:105750006368537973556E6C6F636B0000000000D3
:1057600063684F51577269746554696D656F7574DC
:105770000000000000000000000000000000000029
:105780007370695F6C6C645F7374617274000000A5
:105790006368537973556E6C6F636B000000000093
:1057A000000000000008024004000F00000000009C
:1057B00000000000000000000000000000000000E9
:1057C00000007E81A58181BD9981817E000000005D
:1057D00000007EFFDBFFFFC3E7FFFF7E000000004D
:1057E000000000006CFEFEFEFE7C38100000000091
:1057F0000000000010387CFE7C3810000000000023
:10580000000000183C3CE7E7E718183C00000000E7
:10581000000000183C7EFFFF7E18183C00000000CE
:10582000000000000000183C3C18000000000000D0
:10583000FFFFFFFFFFFFE7C3C3E7FFFFFFFFFFFF20
:1058400000000000003C664242663C000000000090
:10585000FFFFFFFFFFC399BDBD99C3FFFFFFFFFF20
:1058600000001E0E1A3278CCCCCCCC7800000000A0
:1058700000003C666666663C187E18180000000052
:1058800000003F333F3030303070F0E00000000067
:1058900000007F637F6363636367E7E6C000000027
:1058A0000000001818DB3CE73CDB18180000000083
:1058B0000080C0E0F0F8FEF8F0E0C08000000000DA
:1058C0000002060E1E3EFE3E1E0E060200000000F6
:1058D0000000183C7E1818187E3C180000000000DC
:1058E0000000666666666666660066660000000022
:1058F00000007FDBDBDB7B1B1B1B1B1B0000000096
:10590000007CC660386CC6C66C380CC67C000000D3
:105910000000000000000000FEFEFEFE000000008F
:105920000000183C7E1818187E3C187E000000000D
:105930000000183C7E1818181818181800000000ED
:105940000000181818181818187E3C1800000000DD
:105950000000000000180CFE0C1800000000000001
:1059600000000000003060FE603000000000000019
:10597000000000000000C0C0C0FE000000000000E9
:105980000000000000286CFE6C28000000000000F1
:10599000000000001038387C7CFEFE000000000093
:1059A00000000000FEFE7C7C383810000000000083
:1059B00000000000000000000000000000000000E7
:1059C0000000183C3C3C1818180018180000000093
:1059D0000066666624000000000000000000000071
:1059E0000000006C6CFE6C6C6CFE6C6C00000000C7
:1059F00018187CC6C2C07C060686C67C1818000033
:105A000000000000C2C60C183060C686000000000E
:105A10000000386C6C3876DCCCCCCC760000000012
:105A20000030303060000000000000000000000086
:105A300000000C18303030303030180C00000000FE
:105A4000000030180C0C0C0C0C0C1830000000007E
:105A50000000000000663CFF3C6600000000000003
:105A6000000000000018187E181800000000000058
:105A700000000000000000000018181830000000AE
:105A800000000000000000FE000000000000000018
:105A900000000000000000000000181800000000D6
:105AA0000000000002060C183060C08000000000FA
:105AB0000000386CC6C6D6D6C6C66C3800000000DA
:105AC00000001838781818181818187E0000000000
:105AD00000007CC6060C183060C0C6FE0000000046
